{
  "_format": "hh-sol-artifact-1",
  "contractName": "Relationship",
  "sourceName": "contracts/Relationship.sol",
  "abi": [
    {
      "inputs": [
        {
          "internalType": "address",
          "name": "_personTwo",
          "type": "address"
        },
        {
          "internalType": "string",
          "name": "_relationshipDescription",
          "type": "string"
        }
      ],
      "stateMutability": "nonpayable",
      "type": "constructor"
    },
    {
      "inputs": [],
      "name": "active",
      "outputs": [
        {
          "internalType": "bool",
          "name": "",
          "type": "bool"
        }
      ],
      "stateMutability": "view",
      "type": "function"
    },
    {
      "inputs": [],
      "name": "agree",
      "outputs": [],
      "stateMutability": "nonpayable",
      "type": "function"
    },
    {
      "inputs": [],
      "name": "agreedByPersonTwo",
      "outputs": [
        {
          "internalType": "bool",
          "name": "",
          "type": "bool"
        }
      ],
      "stateMutability": "view",
      "type": "function"
    },
    {
      "inputs": [],
      "name": "disactivate",
      "outputs": [],
      "stateMutability": "nonpayable",
      "type": "function"
    },
    {
      "inputs": [],
      "name": "personOne",
      "outputs": [
        {
          "internalType": "address",
          "name": "",
          "type": "address"
        }
      ],
      "stateMutability": "view",
      "type": "function"
    },
    {
      "inputs": [],
      "name": "personTwo",
      "outputs": [
        {
          "internalType": "address",
          "name": "",
          "type": "address"
        }
      ],
      "stateMutability": "view",
      "type": "function"
    },
    {
      "inputs": [],
      "name": "relationshipDescription",
      "outputs": [
        {
          "internalType": "string",
          "name": "",
          "type": "string"
        }
      ],
      "stateMutability": "view",
      "type": "function"
    },
    {
      "inputs": [
        {
          "internalType": "string",
          "name": "_newRelationshipDescription",
          "type": "string"
        }
      ],
      "name": "update",
      "outputs": [],
      "stateMutability": "nonpayable",
      "type": "function"
    }
  ],
  "bytecode": "0x60806040523480156200001157600080fd5b506040516200168338038062001683833981810160405281019062000037919062000339565b3373ffffffffffffffffffffffffffffffffffffffff168273ffffffffffffffffffffffffffffffffffffffff16036200007057600080fd5b336000806101000a81548173ffffffffffffffffffffffffffffffffffffffff021916908373ffffffffffffffffffffffffffffffffffffffff16021790555081600160006101000a81548173ffffffffffffffffffffffffffffffffffffffff021916908373ffffffffffffffffffffffffffffffffffffffff1602179055508060029081620001029190620005ea565b506000600360006101000a81548160ff0219169083151502179055506001600360016101000a81548160ff0219169083151502179055505050620006d1565b6000604051905090565b600080fd5b600080fd5b600073ffffffffffffffffffffffffffffffffffffffff82169050919050565b6000620001828262000155565b9050919050565b620001948162000175565b8114620001a057600080fd5b50565b600081519050620001b48162000189565b92915050565b600080fd5b600080fd5b6000601f19601f8301169050919050565b7f4e487b7100000000000000000000000000000000000000000000000000000000600052604160045260246000fd5b6200020f82620001c4565b810181811067ffffffffffffffff82111715620002315762000230620001d5565b5b80604052505050565b60006200024662000141565b905062000254828262000204565b919050565b600067ffffffffffffffff821115620002775762000276620001d5565b5b6200028282620001c4565b9050602081019050919050565b60005b83811015620002af57808201518184015260208101905062000292565b60008484015250505050565b6000620002d2620002cc8462000259565b6200023a565b905082815260208101848484011115620002f157620002f0620001bf565b5b620002fe8482856200028f565b509392505050565b600082601f8301126200031e576200031d620001ba565b5b815162000330848260208601620002bb565b91505092915050565b600080604083850312156200035357620003526200014b565b5b60006200036385828601620001a3565b925050602083015167ffffffffffffffff81111562000387576200038662000150565b5b620003958582860162000306565b9150509250929050565b600081519050919050565b7f4e487b7100000000000000000000000000000000000000000000000000000000600052602260045260246000fd5b60006002820490506001821680620003f257607f821691505b602082108103620004085762000407620003aa565b5b50919050565b60008190508160005260206000209050919050565b60006020601f8301049050919050565b600082821b905092915050565b600060088302620004727fffffffffffffffffffffffffffffffffffffffffffffffffffffffffffffffff8262000433565b6200047e868362000433565b95508019841693508086168417925050509392505050565b6000819050919050565b6000819050919050565b6000620004cb620004c5620004bf8462000496565b620004a0565b62000496565b9050919050565b6000819050919050565b620004e783620004aa565b620004ff620004f682620004d2565b84845462000440565b825550505050565b600090565b6200051662000507565b62000523818484620004dc565b505050565b5b818110156200054b576200053f6000826200050c565b60018101905062000529565b5050565b601f8211156200059a5762000564816200040e565b6200056f8462000423565b810160208510156200057f578190505b620005976200058e8562000423565b83018262000528565b50505b505050565b600082821c905092915050565b6000620005bf600019846008026200059f565b1980831691505092915050565b6000620005da8383620005ac565b9150826002028217905092915050565b620005f5826200039f565b67ffffffffffffffff811115620006115762000610620001d5565b5b6200061d8254620003d9565b6200062a8282856200054f565b600060209050601f8311600181146200066257600084156200064d578287015190505b620006598582620005cc565b865550620006c9565b601f19841662000672866200040e565b60005b828110156200069c5784890151825560018201915060208501945060208101905062000675565b86831015620006bc5784890151620006b8601f891682620005ac565b8355505b6001600288020188555050505b505050505050565b610fa280620006e16000396000f3fe608060405234801561001057600080fd5b50600436106100885760003560e01c80638431bba01161005b5780638431bba0146100ef5780638fae60a51461010d578063c59edeaa14610117578063effacc7f1461013557610088565b806302fb0c5e1461008d5780631bf9f6da146100ab5780633d7403a3146100c95780635dd0f49f146100e5575b600080fd5b610095610153565b6040516100a29190610715565b60405180910390f35b6100b3610166565b6040516100c09190610715565b60405180910390f35b6100e360048036038101906100de919061088a565b610179565b005b6100ed6103d3565b005b6100f7610525565b6040516101049190610952565b60405180910390f35b6101156105b3565b005b61011f6106b0565b60405161012c91906109b5565b60405180910390f35b61013d6106d6565b60405161014a91906109b5565b60405180910390f35b600360019054906101000a900460ff1681565b600360009054906101000a900460ff1681565b3373ffffffffffffffffffffffffffffffffffffffff1660008054906101000a900473ffffffffffffffffffffffffffffffffffffffff1673ffffffffffffffffffffffffffffffffffffffff16148061022057503373ffffffffffffffffffffffffffffffffffffffff16600160009054906101000a900473ffffffffffffffffffffffffffffffffffffffff1673ffffffffffffffffffffffffffffffffffffffff16145b61025f576040517f08c379a000000000000000000000000000000000000000000000000000000000815260040161025690610a42565b60405180910390fd5b600360019054906101000a900460ff166102ae576040517f08c379a00000000000000000000000000000000000000000000000000000000081526004016102a590610ad4565b60405180910390fd5b3373ffffffffffffffffffffffffffffffffffffffff16600160009054906101000a900473ffffffffffffffffffffffffffffffffffffffff1673ffffffffffffffffffffffffffffffffffffffff16036103a55760008054906101000a900473ffffffffffffffffffffffffffffffffffffffff16600160006101000a81548173ffffffffffffffffffffffffffffffffffffffff021916908373ffffffffffffffffffffffffffffffffffffffff160217905550336000806101000a81548173ffffffffffffffffffffffffffffffffffffffff021916908373ffffffffffffffffffffffffffffffffffffffff1602179055505b80600290816103b49190610d0a565b506000600360006101000a81548160ff02191690831515021790555050565b3373ffffffffffffffffffffffffffffffffffffffff1660008054906101000a900473ffffffffffffffffffffffffffffffffffffffff1673ffffffffffffffffffffffffffffffffffffffff16148061047a57503373ffffffffffffffffffffffffffffffffffffffff16600160009054906101000a900473ffffffffffffffffffffffffffffffffffffffff1673ffffffffffffffffffffffffffffffffffffffff16145b6104b9576040517f08c379a00000000000000000000000000000000000000000000000000000000081526004016104b090610a42565b60405180910390fd5b600360019054906101000a900460ff16610508576040517f08c379a00000000000000000000000000000000000000000000000000000000081526004016104ff90610e4e565b60405180910390fd5b6000600360016101000a81548160ff021916908315150217905550565b6002805461053290610b23565b80601f016020809104026020016040519081016040528092919081815260200182805461055e90610b23565b80156105ab5780601f10610580576101008083540402835291602001916105ab565b820191906000526020600020905b81548152906001019060200180831161058e57829003601f168201915b505050505081565b3373ffffffffffffffffffffffffffffffffffffffff16600160009054906101000a900473ffffffffffffffffffffffffffffffffffffffff1673ffffffffffffffffffffffffffffffffffffffff1614610643576040517f08c379a000000000000000000000000000000000000000000000000000000000815260040161063a90610eba565b60405180910390fd5b600360009054906101000a900460ff1615610693576040517f08c379a000000000000000000000000000000000000000000000000000000000815260040161068a90610f4c565b60405180910390fd5b6001600360006101000a81548160ff021916908315150217905550565b600160009054906101000a900473ffffffffffffffffffffffffffffffffffffffff1681565b60008054906101000a900473ffffffffffffffffffffffffffffffffffffffff1681565b60008115159050919050565b61070f816106fa565b82525050565b600060208201905061072a6000830184610706565b92915050565b6000604051905090565b600080fd5b600080fd5b600080fd5b600080fd5b6000601f19601f8301169050919050565b7f4e487b7100000000000000000000000000000000000000000000000000000000600052604160045260246000fd5b6107978261074e565b810181811067ffffffffffffffff821117156107b6576107b561075f565b5b80604052505050565b60006107c9610730565b90506107d5828261078e565b919050565b600067ffffffffffffffff8211156107f5576107f461075f565b5b6107fe8261074e565b9050602081019050919050565b82818337600083830152505050565b600061082d610828846107da565b6107bf565b90508281526020810184848401111561084957610848610749565b5b61085484828561080b565b509392505050565b600082601f83011261087157610870610744565b5b813561088184826020860161081a565b91505092915050565b6000602082840312156108a05761089f61073a565b5b600082013567ffffffffffffffff8111156108be576108bd61073f565b5b6108ca8482850161085c565b91505092915050565b600081519050919050565b600082825260208201905092915050565b60005b8381101561090d5780820151818401526020810190506108f2565b60008484015250505050565b6000610924826108d3565b61092e81856108de565b935061093e8185602086016108ef565b6109478161074e565b840191505092915050565b6000602082019050818103600083015261096c8184610919565b905092915050565b600073ffffffffffffffffffffffffffffffffffffffff82169050919050565b600061099f82610974565b9050919050565b6109af81610994565b82525050565b60006020820190506109ca60008301846109a6565b92915050565b7f596f7520617265206e6f7420696e766f6c76656420696e20746869732072656c60008201527f6174696f6e736869702100000000000000000000000000000000000000000000602082015250565b6000610a2c602a836108de565b9150610a37826109d0565b604082019050919050565b60006020820190508181036000830152610a5b81610a1f565b9050919050565b7f5468652072656c6174696f6e736869702068617320616c726561647920656e6460008201527f6564210000000000000000000000000000000000000000000000000000000000602082015250565b6000610abe6023836108de565b9150610ac982610a62565b604082019050919050565b60006020820190508181036000830152610aed81610ab1565b9050919050565b7f4e487b7100000000000000000000000000000000000000000000000000000000600052602260045260246000fd5b60006002820490506001821680610b3b57607f821691505b602082108103610b4e57610b4d610af4565b5b50919050565b60008190508160005260206000209050919050565b60006020601f8301049050919050565b600082821b905092915050565b600060088302610bb67fffffffffffffffffffffffffffffffffffffffffffffffffffffffffffffffff82610b79565b610bc08683610b79565b95508019841693508086168417925050509392505050565b6000819050919050565b6000819050919050565b6000610c07610c02610bfd84610bd8565b610be2565b610bd8565b9050919050565b6000819050919050565b610c2183610bec565b610c35610c2d82610c0e565b848454610b86565b825550505050565b600090565b610c4a610c3d565b610c55818484610c18565b505050565b5b81811015610c7957610c6e600082610c42565b600181019050610c5b565b5050565b601f821115610cbe57610c8f81610b54565b610c9884610b69565b81016020851015610ca7578190505b610cbb610cb385610b69565b830182610c5a565b50505b505050565b600082821c905092915050565b6000610ce160001984600802610cc3565b1980831691505092915050565b6000610cfa8383610cd0565b9150826002028217905092915050565b610d13826108d3565b67ffffffffffffffff811115610d2c57610d2b61075f565b5b610d368254610b23565b610d41828285610c7d565b600060209050601f831160018114610d745760008415610d62578287015190505b610d6c8582610cee565b865550610dd4565b601f198416610d8286610b54565b60005b82811015610daa57848901518255600182019150602085019450602081019050610d85565b86831015610dc75784890151610dc3601f891682610cd0565b8355505b6001600288020188555050505b505050505050565b7f5468652072656c6174696f6e7368697020697320616c726561647920656e646560008201527f6421000000000000000000000000000000000000000000000000000000000000602082015250565b6000610e386022836108de565b9150610e4382610ddc565b604082019050919050565b60006020820190508181036000830152610e6781610e2b565b9050919050565b7f4974206973206e6f7420666f7220796f7520746f206167726565210000000000600082015250565b6000610ea4601b836108de565b9150610eaf82610e6e565b602082019050919050565b60006020820190508181036000830152610ed381610e97565b9050919050565b7f596f7520616c72656164792061677265656420746f20746869732072656c617460008201527f696f6e7368697021000000000000000000000000000000000000000000000000602082015250565b6000610f366028836108de565b9150610f4182610eda565b604082019050919050565b60006020820190508181036000830152610f6581610f29565b905091905056fea264697066735822122005c3b05f6167eaef03c7c264f33c91b0c3cddbac4d1b6c9e844eb884a67345a364736f6c63430008110033",
  "linkReferences": {},
  "deployedLinkReferences": {}
}